{
  "contractName": "Raffle",
  "abi": [
    {
      "constant": true,
      "inputs": [
        {
          "name": "_index",
          "type": "uint256"
        }
      ],
      "name": "getPlayerAddressAtIndex",
      "outputs": [
        {
          "name": "playerAddress",
          "type": "address"
        }
      ],
      "payable": false,
      "stateMutability": "view",
      "type": "function"
    },
    {
      "constant": true,
      "inputs": [
        {
          "name": "_address",
          "type": "address"
        }
      ],
      "name": "isARegisteredPlayer",
      "outputs": [
        {
          "name": "registered",
          "type": "bool"
        }
      ],
      "payable": false,
      "stateMutability": "view",
      "type": "function"
    },
    {
      "constant": false,
      "inputs": [
        {
          "name": "_name",
          "type": "bytes32"
        }
      ],
      "name": "registerPlayer",
      "outputs": [
        {
          "name": "newPlayerAddress",
          "type": "address"
        }
      ],
      "payable": false,
      "stateMutability": "nonpayable",
      "type": "function"
    },
    {
      "constant": true,
      "inputs": [],
      "name": "getPlayersCount",
      "outputs": [
        {
          "name": "count",
          "type": "uint256"
        }
      ],
      "payable": false,
      "stateMutability": "view",
      "type": "function"
    },
    {
      "constant": true,
      "inputs": [
        {
          "name": "_playerAddress",
          "type": "address"
        }
      ],
      "name": "getPlayerByAddress",
      "outputs": [
        {
          "name": "name",
          "type": "bytes32"
        },
        {
          "name": "numAttempts",
          "type": "uint256"
        },
        {
          "name": "balance",
          "type": "int256"
        }
      ],
      "payable": false,
      "stateMutability": "view",
      "type": "function"
    },
    {
      "constant": true,
      "inputs": [
        {
          "name": "",
          "type": "address"
        }
      ],
      "name": "players",
      "outputs": [
        {
          "name": "index",
          "type": "uint256"
        },
        {
          "name": "exists",
          "type": "bool"
        },
        {
          "name": "name",
          "type": "bytes32"
        },
        {
          "name": "numAttempts",
          "type": "uint256"
        },
        {
          "name": "balance",
          "type": "int256"
        }
      ],
      "payable": false,
      "stateMutability": "view",
      "type": "function"
    },
    {
      "anonymous": false,
      "inputs": [
        {
          "indexed": false,
          "name": "name",
          "type": "bytes32"
        },
        {
          "indexed": false,
          "name": "numAttempts",
          "type": "uint256"
        },
        {
          "indexed": false,
          "name": "balance",
          "type": "int256"
        }
      ],
      "name": "PlayerAdded",
      "type": "event"
    }
  ],
  "bytecode": "0x6060604052341561000f57600080fd5b6106a58061001e6000396000f300606060405260043610610078576000357c0100000000000000000000000000000000000000000000000000000000900463ffffffff1680634a3d22c11461007d5780637947a869146100e05780638996e7dc14610131578063a76594bf14610198578063d4d51269146101c1578063e2eb41ff14610224575b600080fd5b341561008857600080fd5b61009e6004808035906020019091905050610299565b604051808273ffffffffffffffffffffffffffffffffffffffff1673ffffffffffffffffffffffffffffffffffffffff16815260200191505060405180910390f35b34156100eb57600080fd5b610117600480803573ffffffffffffffffffffffffffffffffffffffff169060200190919050506102f2565b604051808215151515815260200191505060405180910390f35b341561013c57600080fd5b61015660048080356000191690602001909190505061034b565b604051808273ffffffffffffffffffffffffffffffffffffffff1673ffffffffffffffffffffffffffffffffffffffff16815260200191505060405180910390f35b34156101a357600080fd5b6101ab6104ea565b6040518082815260200191505060405180910390f35b34156101cc57600080fd5b6101f8600480803573ffffffffffffffffffffffffffffffffffffffff169060200190919050506104f6565b604051808460001916600019168152602001838152602001828152602001935050505060405180910390f35b341561022f57600080fd5b61025b600480803573ffffffffffffffffffffffffffffffffffffffff169060200190919050506105e5565b604051808681526020018515151515815260200184600019166000191681526020018381526020018281526020019550505050505060405180910390f35b60006102a36104ea565b821015156102b057600080fd5b6000828154811015156102bf57fe5b906000526020600020900160009054906101000a900473ffffffffffffffffffffffffffffffffffffffff169050919050565b6000600160008373ffffffffffffffffffffffffffffffffffffffff1673ffffffffffffffffffffffffffffffffffffffff16815260200190815260200160002060010160009054906101000a900460ff169050919050565b6000806000151561035b336102f2565b151514151561036957600080fd5b60016000805480600101828161037f9190610628565b9160005260206000209001600033909190916101000a81548173ffffffffffffffffffffffffffffffffffffffff021916908373ffffffffffffffffffffffffffffffffffffffff16021790555003905060a06040519081016040528082815260200160011515815260200184600019168152602001600081526020016000815250600160003373ffffffffffffffffffffffffffffffffffffffff1673ffffffffffffffffffffffffffffffffffffffff1681526020019081526020016000206000820151816000015560208201518160010160006101000a81548160ff0219169083151502179055506040820151816002019060001916905560608201518160030155608082015181600401559050507febd19900c0cdad8b0efeede558df986e9029521738489c10d351221bf4f7dcc083600080604051808460001916600019168152602001838152602001828152602001935050505060405180910390a133915050919050565b60008080549050905090565b6000806000610504846102f2565b151561050f57600080fd5b600160008573ffffffffffffffffffffffffffffffffffffffff1673ffffffffffffffffffffffffffffffffffffffff168152602001908152602001600020600201549250600160008573ffffffffffffffffffffffffffffffffffffffff1673ffffffffffffffffffffffffffffffffffffffff168152602001908152602001600020600301549150600160008573ffffffffffffffffffffffffffffffffffffffff1673ffffffffffffffffffffffffffffffffffffffff1681526020019081526020016000206004015490509193909250565b60016020528060005260406000206000915090508060000154908060010160009054906101000a900460ff16908060020154908060030154908060040154905085565b81548183558181151161064f5781836000526020600020918201910161064e9190610654565b5b505050565b61067691905b8082111561067257600081600090555060010161065a565b5090565b905600a165627a7a72305820c7e2448ecc4fd29846239308c1481a8a4cf684c9fd308b69a615150917469b1d0029",
  "source": "pragma solidity ^0.4.17;\n\n\ncontract Raffle {\n\n    event PlayerAdded(bytes32 name, uint numAttempts, int balance);\n\n\n    struct Player {\n        uint index;\n        bool exists;\n        bytes32 name;\n        uint numAttempts;\n        int balance;\n    }\n\n    address[] playersAddresses;\n\n    mapping (address => Player) public players;\n\n    function isARegisteredPlayer(address _address) public view returns(bool registered){\n        registered = players[_address].exists;\n    }\n\n    function registerPlayer(bytes32 _name) public returns(address newPlayerAddress){\n        //Check if the Player already exist\n        require(isARegisteredPlayer(msg.sender) == false);\n\n        //Save in addresses array\n        uint index = playersAddresses.push(msg.sender) - 1;\n\n        //Save in mapping(address => Player)\n        players[msg.sender] = Player(index,true,_name,0,0);\n\n        //Call to the event\n        PlayerAdded(_name,0,0);\n\n        newPlayerAddress = msg.sender;\n    }\n\n    function getPlayersCount() public view returns(uint count) {\n        count = playersAddresses.length;\n    }\n\n    function getPlayerAddressAtIndex(uint _index) public view returns(address playerAddress){\n        //Make sure I don't try to read a index that doesn't exist??\n        require(_index < getPlayersCount());\n\n        playerAddress = playersAddresses[_index];\n    }\n\n    function getPlayerByAddress(address _playerAddress) public view returns(bytes32 name, uint numAttempts, int balance) {\n        //Check if we are trying to retrieve info from a existing Player\n        require(isARegisteredPlayer(_playerAddress));\n\n        name = players[_playerAddress].name;\n        numAttempts = players[_playerAddress].numAttempts;\n        balance = players[_playerAddress].balance;\n    }\n\n}\n",
  "sourcePath": "/Users/Nacho/ETHEREUM/Raffle/contracts/Raffle.sol",
  "compiler": {
    "name": "solc",
    "version": "0.4.18+commit.9cf6e910.Emscripten.clang"
  },
  "schemaVersion": "1.0.1",
  "updatedAt": "2018-01-02T18:23:39.161Z"
}